           8162GLOSS BOIS DE ROSE N°2        I001      A12   2I    **********12A5AI001 I    0000000000000000000000000000000000000
           8181GLOSS POT DE CONFIT FRAISE N°1I001      A12   2I    **********12A5AI001 I    3700206781815000000000000000000000000
          A7317PINCE PREMIUM PM              3002      A24   23    **********2433D3002 3    0000000000000006000000000000000000000
        0132GV 250 ELASTIQ ACHETES 50 OFFERTSJ004      A15   2J    **********15J4DJ004 J    0000000000000000000000000000000000000
      3295     CAPUCHE PLUIE                 W004      F19   2W    **********19W4DW004 W    3700206732954000000000000000000000000
    0131GV     BOUTS DE NATTE CAOUTCHOUC     J004      F15   2J    **********15J4DJ004 J    0000000000000000000000000000000000000
    0308GV     60 FIXE MECHES ACH 20 OFFERTESJ004      F15   2J    **********15J4DJ004 J    0000000000000000000000000000000000000
   0779V       VENTED BRUSH                  J006      A15   2J    **********15J6PJ006 J    0000000000000000000000000000000000000
  6753         HOTSPOT TEINT 08 EXPORT       C109      F12   2D    **********11E4DC109 D    0000000000000000000000000000000000000
  8029         ACC.A-G FETES MODE            S002      A14   2S    **********14S01S002 S    3700206780290000000000000000000000000
 A6071         FAP STARLIGHT DIAMANT 01      C100      F11   2D    **********11E4DC100 D    3700206760711000000000000000000000000
 2003V1        30 ELASTICS METAL LINK        V100      A18   2V    **********18V10V100 V    0000000000000000000000000000000000000
AV13H00        AVOIR HQ                      F001      F13   2F    **********13H00F001 F    0000000000000000000000000000000000000
AV14N01        AVOIRS ABC VOYAGES            N001      F14   2N    **********14N01N001 N    0000000000000000000000000000000000000
AV14Q00        AVOIRS PRINCESSE LILI         Q000      F14   2Q    **********14Q00Q000 Q    0000000000000000000000000000000000000
AV15J4D        AVOIRS FRANCK PROVOST         J004      F15   2J    **********15J4DJ004 J    0000000000000000000000000000000000000
AV15J8D        AVOIRS FRANCK PROVOST HOMME   J008      F15   2J    **********15J8DJ008 J    0000000000000000000000000000000000000
AV18V10        AVOIRS 1 TRUC EN +            V100      F18   2V    **********18V10V100 V    0000000000000000000000000000000000000
AV2888A        AVOIRS NOCIBE                 8001      F28   28    **********2888A8001 8    0000000000000000000000000000000000000
AV3301A        Avoirs soins demeliss         34001     F49   233   **********3301A3300133   0000000000000000000000000000000000000
AV3401A        Avoir Demeliss PEM            34001     F50   234   **********3401A3400134   0000000000000000000000000000000000000
AV3517A        AVOIRS OMNIA BOTANICA         17001     F35   217   **********3517A1700117   0000000000000000000000000000000000000
AV3618A        AVOIR EAU DES ALPES           18001     F36   218   **********3618A1800118   0000000000000000000000000000000000000
AV7214         FLEUR DE DOUCHE               16001     A34   216   **********3216A6    16   0000000000000006000016200000270000006
AV7219         PINCE A EPILER DOREE MORS BIAI16001     A34   216   **********3216A6    16   0000000000000006000000000000000000000
AV7220         PINCE A EPILER DOREE MORS DROI16001     A34   216   **********3216A6    16   0000000000000006000000000000000000000
AV7221         PINCE A EPILER DOREE MORS CRAB16001     A34   216   **********3216A6    16   0000000000000006000000000000000000000
AV7224         EPONGES DEMAQUILLANTES X2     16001     A34   216   **********3216A6    16   0000000000000006000030000000500000006
AV7225         EPONGES MAQUILLAGE LATEX CARRE16001     A34   216   **********3216A6    16   0000000000000006000100000010000000001
AV7227         HOUPETTE RONDE X2 / POUDRE LIB16001     A34   216   **********3216A6    16   0000000000000006000080000008000000001
AV7228         RECOURBE CILS AVEC ANNEAUX CON16001     A34   216   **********3216A6    16   0000000000000006000000000000000000000
AV7229         TAILLE CRAYONS AVEC RECUPERATE16001     A34   216   **********3216A6    16   0000000000000006000090000001500000006
AV7230         SET MAQUILLAGE                16001     A34   216   **********3216A6    16   0000000000000006000000000000000000000
AV7231         PINCEAU BLUSH RETRACTABLE GM  16001     A34   216   **********3216A6    16   0000000000000006000000000000000000000
AV7232         PINCEAU BLUSH RETRACTABLE PM  16001     A34   216   **********3216A6    16   0000000000000006000000000000000000000
AV7233         PINCEAU POUDRE                16001     A34   216   **********3216A6    6    0000000000000006000000000000000000000
AV7234         PINCEAU BLUSH                 16001     A34   216   **********3216A6    16   0000000000000006000000000000000000000
AV7235         PINCEAU PAUPIERE              16001     A34   216   **********3216A6    16   0000000000000006000000000000000000000
AV7236         BROSSE PEIGNE CILS ET SOURCILS16001     A34   216   **********3216A6    16   0000000000000006000000000000000000000
AV7237         LOT DE 5 APPLICATEURS COSMETIQ16001     A34   216   **********3216A6    16   0000000000000006000000000000000000000
AV7238         APPLICATEUR COSMETIQUE + 4 EM 16001     A34   216   **********3216A6    16   0000000000000006000000000000000000000
AV7239         BROSSE A ONGLES GM            16001     A34   216   **********3216A6    16   0000000000000001000016000001600000001
AV7241         COUPE ONGLES PM               16001     A34   216   **********3216A6    16   0000000000000006000000000000000000000
AV7243         COUPE ONGLES GM               16001     A34   216   **********3216A6    16   0000000000000006000000000000000000000
AV7246         COUPE CUTICULES               16001     A34   216   **********3216A6    16   0000000000000006000100200001670000006
AV7247         BATONNET CUTICULES X10        16001     A34   216   **********3216A6    16   3662217002993006000000000000000000000
AV7248         LIME EMERI PM X20             16001     A34   216   **********3216A6    16   0000000000000006000000000000000000000
AV7251         LIME LARGES X8                16001     A34   216   **********3216A6    16   0000000000000001000050000005000000001
AV7252         LIMES SAPHIR EN METAL MM      16001     A34   216   **********3216A6    16   0000000000000001000100000010000000001
AV7255         MAXI POLISSEUR                16001     A34   216   **********3216A6    16   0000000000000001000080000008000000001
AV7259         PIERRE PONCE                  16001     A34   216   **********3216A6    16   0000000000000006000024000000400000006
AV7260         SEPARATEUR D ORTEILS          16001     A34   216   **********3216A6    16   0000000000000006000025200000420000006
AV7271         MIROIR DE SAC                 16001     A34   216   **********3216A6    16   0000000000000006000000000000000000000
AV7290         SERRE-TETE PETIT NOEUD        16001     A34   216   **********3216A6    16   0000000000000006000000000000000000000
AV7295         1 BANDEAU BASIQUE             16001     A34   216   **********3216A6    16   0000000000000006000000000000000000000
AV7297         BANDEAU BICOLOR               16001     A34   216   **********3216A6    16   0000000000000006000000000000000000000
AV7301         MICRO PINCE X15               16001     A34   216   **********3216A6    16   0000000000000006000000000000000000000
AV7337         PINCE CARRÉ PM X2             16001     A34   216   **********3216A6    16   0000000000000006000000000000000000000
AV7351         PINCE BASIQUE MM              16001     A34   216   **********3216A6    16   0000000000000006000000000000000000000
AV7385         BROSSE PNEUMATIQUE PICOTS PLAS16001     A34   216   **********3216A6    16   0000000000000006000000000000000000000
AV7392         BROSSE SQUELETTE              16001     A34   216   **********3216A6    16   0000000000000006000000000000000000000
AV7395         BROSSE RONDE 100% SANGLIER    16001     A34   216   **********3216A6    16   0000000000000006000000000000000000000
AV7396         BROSSE PNEUMATIQUE PICOTS 100%16001     A34   216   **********3216A6    16   0000000000000006000000000000000000000
AV7399         BROSSE RONDE CERAMIQUE PICOTS 16001     A34   216   **********3216A6    16   0000000000000006000000000000000000000
AV7400         BROSSE RONDE CERAMIQUE PICOTS 16001     A34   216   **********3216A6    16   0000000000000006000000000000000000000
AV7401         BROSSE DE SAC PNEUMATIQUE PICO16001     A34   216   **********3216A6    16   0000000000000006000000000000000000000
AV7404         BROSSE DE SAC PNEUMATIQUE PICO16001     A34   216   **********3216A6    16   0000000000000006000000000000000000000
AV7406         BROSSE DE SAC PLIANTE AVEC MIRR009      A12   2R    **********12A00R009 R    0000000000000006000000000000000000000
AV7415         PEIGNE MANCHE                 16001     A34   216   **********3216A6    16   0000000000000006000012000001200000001
AV7421         EPINGLES CHIGNON NOIR X40     16001     A34   216   **********3216A6    16   0000000000000006000000000000000000000
AV7424         FIXES MECHE NOIR X40          16001     A34   216   **********3216A6    16   0000000000000006000000000000000000000
AV7431         2X PINCES MECHE FANTAISIE     16001     A34   216   **********3216A6    16   0000000000000006000000000000000000000
AV7435         24 ELASTIQUES FINS            16001     A34   216   **********3216A6    16   0000000000000006000000000000000000000
AV7436         24 ELASTIQUES FINS            16001     A34   216   **********3216A6    16   0000000000000006000000000000000000000
AV7437         12 ELASTIQUES MOYENS          16001     A34   216   **********3216A6    16   0000000000000006000000000000000000000
AV7438         12 ELASTIQUES MOYENS          16001     A34   216   **********3216A6    16   0000000000000006000000000000000000000
AV7458         PLUS DE 200 MINI ELASTIQUES SU16001     A34   216   **********3216A6    16   0000000000000006000100000010000000001
AV7460         LOT DE 2 CHOUCHOUS            16001     A34   216   **********3216A6    16   0000000000000006000000000000000000000
AV7464         10 CLIC CLAC METAL            16001     A34   216   **********3216A6    16   0000000000000006000000000000000000000
AV7467         10 CLIC CLAC EPOXY            16001     A34   216   **********3216A6    16   0000000000000006000000000000000000000
AV7469         16 MINI CLIC CLAC EPOXY       16001     A34   216   **********3216A6    16   0000000000000006000000000000000000000
AV7484         BARRETTE RECTANGLE            16001     A34   216   **********3216A6    16   0000000000000006000000000000000000000
AV7507         1 FLACON A REMPLIR            16001     A34   216   **********3216A6    16   0000000000000006000480000000800000006
AV7508         FLACON 100ML                  16001     A34   216   **********3216A6    16   0000000000000006000000000000000000000
AV7510         POT A REMPLIR 10ML            16001     A34   216   **********3216A6    16   0000000000000006000000000000000000000
AV7512         EPONGE BLENDER                16001     A34   216   **********3216A6    16   0000000000000006000040000004000000001
AV7513         EPONGE BLENDER AVEC MANCHE    16001     A34   216   **********3216A6    16   0000000000000006000000000000000000000
A0039          MIROIR LUXE AUCHAN            3001      A24   23    **********2433D3001 3    3596710300396006000003200000320000001
A0051          COLIS ACCESS PETIT PRIX       3005      F24   23    **********2433D3005 W    3596710400515000000000000000000000000
A0134          DISPLAY PFA MDD AUCHAN        3005      A24   23    **********2433D3005 3    3596710401345000000000000000000000000
A0375          DISPLAY FLEURS DE MASSAGE AUCH3005      A24   23    **********2433D3005 3    3596710403752000000000000000000000000
A0422          BOX DIVINE SIXTIES 270UC      3005      A24   23    **********2433D3005 3    3596710404223000000000000000000000000
A0423          BONNES VACANCES 187UC         3005      A24   23    **********2433D3005 3    3596710404230000000000000000000000000
A0582          PINCE CARREE MM MAT COLOREE X23002      A24   23    **********2433D3002 3    3596710405824006000016200000270000006
A0583          PINCE DENTELLE MAT COLOREE X2 3002      A24   23    **********2433D3002 3    3596710405831006000030000000500000006
A0584          PINCE CARREE MM X4            3002      A24   23    **********2433D3002 3    3596710405848006000019200000320000006
A0585          PINCE CARREE COLOREE MM X4    3002      A24   23    **********2433D3002 3    3596710405855006000019200000320000006
A1522          TROUSSE CLASSIQUE BI-MATIERE  3004      A24   23    **********2433D3004 3    3596710415229003000006000000200000003
A1832          DISPLAY ENFANT 162UC ACC.     3005      A24   23    **********2433D3005 3    3596710418329000000000000000000000000
A1846          DISPLAY 200UC BACK TO BASICS  3005      A24   23    **********2433D3005 3    3596710418466000000000000000000000000
A2004          BEIGNET CHIGNON PM            3002      A24   23    **********2433D3002 3    3596710420049006000019200000320000006
A2005          ELASTIQUE FAUX CHEVEUX TRESSE 3002      A24   23    **********2433D3002 3    3596710420056006000042600000710000006
A2038          LOT DE 500 ACCESSOIRES        3003      A24   23    **********2433D3003 3    3596710420384006000006000000100000006
A2039          LASSO DE COIFFURE PM + GM     3002      A24   23    **********2433D3002 3    3596710420391006000050400000840000006
A2040          AUCHAN TROUSSE POCHETTE VINYL 3004      A24   23    **********2433D3004 3    3596710420407006000030000000500000006
A2189          SERRE TETE METAL TRESSE       3002      A24   23    **********2433D3002 3    3596710421893006000037800000630000006
A2294          BANDEAU FIN SILICONE BI-COLORE3002      A24   23    **********2433D3002 3    3596710422944006000030000000500000006
A2504          ELITE PAPER BAG               C104      A11   2D    **********11E4DC104 D    3700206725048000000000000000000000000
A2505          ELITE ORGANZA POUCH GOLD      C104      A11   2D    **********11E4DC104 D    3700206725055000000000000000000000000
A2579          PINCE PAPILLON 1ER PRIX       3002      A24   23    **********2433D3002 3    3596710425792006000030000000500000006
A2836          DISPLAY 332 UC LES GRATUITS   3005      A24   23    **********2433D3005 3    3596710428366000000000000000000000000
A2837          LIMES LARGES X10              3001      F24   23    **********2433D3001 3    3596710428373006000030000000500000006
A2837V         LIMES LARGES X10              3001      A24   23    **********2433D3001 3    0000000000000006000048000000080000060
A2838          MIROIR GROSSISSANT X10 + PAE  3001      A24   23    **********2433D3001 3    3596710428380006000024000000400000006
A2839          4 PINCES COIFFEUR             3002      A24   23    **********2433D3002 3    3596710428397006000015000000250000006
A2840          300 ELASTIQUES SUPER ETIRABLES3002      A24   23    **********2433D3002 3    3596710428403006000054000000900000006
A2841          ELASTIQUES FINS X28           3002      A24   23    **********2433D3002 3    3596710428410006000045000000750000006
A2842          ELASTIQUES MOYENS X18         3002      A24   23    **********2433D3002 3    3596710428427006000043200000720000006
A2843          ELASTIQUES MOUSSES X16        3002      A24   23    **********2433D3002 3    3596710428434006000060000001000000006
A2844          CLIC CLAC X12                 3002      A24   23    **********2433D3002 3    3596710428441006000030000000500000006
A2845          3 CLIC CLAC GEANTES           3002      A24   23    **********2433D3002 3    3596710428458006000060000001000000006
A2846          BUN + 4 EPINGLES + 1 ELASTIQUE3002      A24   23    **********2433D3002 3    3596710428465006000020400000340000006
A2847          MINI PINCES X12               3002      A24   23    **********2433D3002 3    3596710428472006000030000000500000006
A2848          EPINGLES CHIGNONS X75         3002      A24   23    **********2433D3002 3    3596710428489006000028800000480000006
A2849          FIXE-MECHES X75               3002      A24   23    **********2433D3002 3    3596710428496006000028800000480000006
A2850          ELASTIQUES X12                3003      A24   23    **********2433D3003 3    3596710428502006000030000000500000006
A2851          8 CLIC CLAC                   3003      A24   23    **********2433D3003 3    3596710428519006000056400000940000006
A2852          LOT DE 5 SERRE-TETE           3003      A24   23    **********2433D3003 3    3596710428526006000030000000500000006
A3040          DISPLAY VINTAGE BAROQUE 219UC 3005      A24   23    **********2433D3005 3    3596710430406000000000000000000000000
A3041          ELASTIQUES X24 AVEC CHARM     3002      A24   23    **********2433D3002 3    3596710430413006000040200000670000006
A3042          ELASTIQUE X10 AVEC FLEUR      3002      A24   23    **********2433D3002 3    3596710430420006000030000000500000006
A3043          PINCES GUICHES MODE           3002      A24   23    **********2433D3002 3    3596710430437006000072000001200000006
A3045          PINCE MODE                    3002      A24   23    **********2433D3002 3    3596710430451006000028800000480000006
A3046          CLIC CLAC MODE X8             3002      A24   23    **********2433D3002 3    3596710430468006000060000001000000006
A3047          SERRE TETE MODE               3002      A24   23    **********2433D3002 3    3596710430475006000030000000500000006
A3048          BANDEAU CHAINETTE             3002      A24   23    **********2433D3002 3    3596710430482006000030000000500000006
A3552          MIROIR DE POCHE LUMINEUX      3001      F24   23    **********2433D3001 3    3596710435524006000006000000100000006
A3552V         LED POCKET MIRROR             3001      A24   23    **********2433D3001 3    0000000000000004000010000000040000025
A3553          LOT DE 18 ELASTIQUES          3003      A24   23    **********2433D3003 3    3596710435531006000054000000900000006
A3554          ELASTIQUES SILICONE AVEC NOEUD3003      A24   23    **********2433D3003 3    3596710435548006000025200000420000006
A3555          ELASTIQUES TELEPHONE PM X5    3002      A24   23    **********2433D3002 3    3596710435555006000025200000420000006
A3556          BROSSE DEMELANTE              3002      A24   23    **********2433D3002 3    3596710435562006000003600000060000006
A3557          LOT DE 12 ELASTIQUES BRILLANTS3002      A24   23    **********2433D3002 3    3596710435579006000030000000500000006
A3558          VAPORISATEUR DE SAC 10ML      3001      F24   23    **********2433D3001 3    3596710435586006000028800000480000006
A3558V         PERFUME ATOMIZER 10ML         3001      A24   23    **********2433D3001 3    0000000000000006000050000005000000001
A3559          TROUSSE AVION                 3004      A24   23    **********2433D3004 3    3596710435593006000003600000060000006
A3565          LOT D'ELASTIQUES BIJOU        3003      A24   23    **********2433D3003 3    3596710435654006000030000000500000006
A3566          ELASTIQUES TELEPHONE RAYURESX53003      A24   23    **********2433D3003 3    3596710435661006000025200000420000006
A5999          T SHIRT ELITE MANCHES 3/4     U001      A59   BU    **********PLV  U001 U    0000000000000000000000000000000000000
A6000          ELITE BEAUTY BOX 2010 REMPLIE U001      F59   BU    **********PLV  U001 U    0000000000000000000000000000000000000
A6001          EYELINER INTENSE DEEP BLACK 1 C100      F11   2D    **********11E4DC100 D    3700206760018000000000000000000000000
A6002          EYELINER INTENSE CHOCOLAT 2   C100      F11   2D    **********11E4DC100 D    3700206760025000000000000000000000000
A6003          EYELINER INTENSE 3            C100      F11   2D    **********11E4DC100 D    3700206760032000000000000000000000000
A6004          MATT LINER - MATT BLACK       C100      A11   2D    **********11E4DC100 D    3700206760049000000000000000000000000
A6005          MATT LINER - MATT BROWN       C100      A11   2D    **********11E4DC100 D    3700206760056000000000000000000000000
A6006          STRASS LINER - STRASS BLACK   C100      A11   2D    **********11E4DC100 D    3700206760063000000000000000000000000
A6010          LINER PERFECTION PERFECT BLACKC100      A11   2D    **********11E4DC100 D    3700206760100000000000000000000000000
A6011          EYELINER EXPRESS DEEP BLACK 1 C100      A11   2D    **********11E4DC100 D    3700206760117000000000000000000000000
A6012          EYELINER EXPRESS CHESTNUT N°2 C100      A11   2D    **********11E4DC100 D    3700206760124000000000000000000000000
A6014          HAUTE COUTURE 01 BLACK SATIN  C100      F11   2D    **********11E4DC100 D    3700206760148000000000000000000000000
A6015          HAUTE COUTURE 02 PURPLE CASHMEC100      F11   2D    **********11E4DC100 D    3700206760155000000000000000000000000
A6016          HAUTE COUTURE 03 CHOCOLATE SILC100      F11   2D    **********11E4DC100 D    3700206760162000000000000000000000000
A6017          HAUTE COUTURE 04 BROWN ORGANZAC100      F11   2D    **********11E4DC100 D    3700206760179000000000000000000000000
A6018          HAUTE COUTURE 05 BLUE JEAN    C100      F11   2D    **********11E4DC100 D    3700206760186000000000000000000000000
A6019          HAUTE COUTURE 06 GREEN TAFFETAC100      F11   2D    **********11E4DC100 D    3700206760193000000000000000000000000
A6021          MASC FASHION CODE BLACK NIG TWC100      F11   2D    **********11E4DC100 D    3700206760216003000000000000000000000
A6022          MASC FASHION CODE CHICBROWN TWC100      F11   2D    **********11E4DC100 D    3700206760223000000000000000000000000
A6023          MASCARA FASHION CODE VERY BLUEC100      F11   2D    **********11E4DC100 D    3700206760230000000000000000000000000
A6024          MASCARA FASHION CODE GREEN ARMC100      F11   2D    **********11E4DC100 D    3700206760247000000000000000000000000
A6025          MASCARA FASHION CODE SO PURPLEC100      F11   2D    **********11E4DC100 D    3700206760254000000000000000000000000
A6026          MASC FASHION CODE BLACK WP TW C100      F11   2D    **********11E4DC100 D    3700206760261003000000000000000000000
A6027          MASCARA FASHION WP BROWN 02   C100      A11   2D    **********11E4DC100 D    3700206760278000000000000000000000000
A6028          SLIM MASCARA 01 BLACK WP      C100      A11   2D    **********11E4DC100 D    3700206760285000000000000000000000000
A6029          SLIM MASCARA 02 BROWN WP      C100      A11   2D    **********11E4DC100 D    3700206760292000000000000000000000000
A6030          SLIM MASCARA 03 INFINITE BLACKC100      A11   2D    **********11E4DC100 D    3700206760308000000000000000000000000
A6031          OUTRAGEOUS MASCARA DEEP BLACK1C100      F11   2D    **********11E4DC100 D    3700206760315000000000000000000000000
A6032          OUTRAGEOUS MASCARA CHOCOLAT N2C100      F11   2D    **********11E4DC100 D    3700206760322000000000000000000000000
A6033          OUTRAGEOUS MASCARA OUTREMER N3C100      F11   2D    **********11E4DC100 D    3700206760339000000000000000000000000
A6034          OUTRAGEOUS MASCARA MARINE N°5 C100      F11   2D    **********11E4DC100 D    3700206760346000000000000000000000000
A6035          STARRY NIGHT MASCARA N°1 OR   C100      F11   2D    **********11E4DC100 D    3700206760353000000000000000000000000
A6036          STARRY NIGHT MASCARA N°2 ARGENC100      F11   2D    **********11E4DC100 D    3700206760360000000000000000000000000
A6037          VOLUME&CURL MASCARA N°1       C100      F11   2D    **********11E4DC100 D    3700206760377000000000000000000000000
A6038          VOLUME&CURL MASCARA N°2       C100      F11   2D    **********11E4DC100 D    3700206760384000000000000000000000000
A6039          VOLUME&CURL MASCARA N°3       C100      F11   2D    **********11E4DC100 D    3700206760391000000000000000000000000
A6040          BABY MASCARA 01 BLACK         C100      F11   2D    **********11E4DC100 D    3700206760407003000000000000000000000
A6041          MASCARA WATER RESIS DEEP BLACKC100      F11   2D    **********11E4DC100 D    3700206760414000000000000000000000000
A6042          LONG LASHES MASCARA N°1       C100      F11   2D    **********11E4DC100 D    3700206760421000000000000000000000000
A6043          LONG LASHES MASCARA N°2       C100      F11   2D    **********11E4DC100 D    3700206760438000000000000000000000000
A6044          DOLLY CURL MASCARA 01 BLACK   C100      F11   2D    **********11E4DC100 D    3700206760445003000000000000000000000
A6045          WATERPROOF MASCARA N°1        C100      F11   2D    **********11E4DC100 D    3700206760452000000000000000000000000
A6046          WATERPROOF MASCARA N°2        C100      F11   2D    **********11E4DC100 D    3700206760469000000000000000000000000
A6047          SLIM MASCARA 01 BLACK WP MASC+C100      F11   2D    **********11E4DC100 D    3700206760476000000000000000000000000
A6048          SLIM MASCARA 02 SLIM BROWN M+ C100      F11   2D    **********11E4DC100 D    3700206760483000000000000000000000000
A6049          SLIM MASCARA 03 SLIM BLACK M+ C100      F11   2D    **********11E4DC100 D    3700206760490000000000000000000000000
A6051          HAUTE COUTURE 11 BLACK LEATHERC100      F11   2D    **********11E4DC100 D    3700206760513003000000000000000000000
A6052          HAUTE COUTURE 12 TRENDY JERSEYC100      F11   2D    **********11E4DC100 D    3700206760520003000000000000000000000
A6053          HAUTE COUTURE 13 ROSE ANGORA  C100      F11   2D    **********11E4DC100 D    3700206760537003000000000000000000000
A6054          HAUTE COUTURE 14 COPPER LAMÉ  C100      F11   2D    **********11E4DC100 D    3700206760544003000000000000000000000
A6055          FAP GLAMOUR EYES BABY BLUE N°5C100      F11   2D    **********11E4DC100 D    3700206760551000000000000000000000000
A6056          FAP GLAMOUR EYES AZUR N°6     C100      F11   2D    **********11E4DC100 D    3700206760568000000000000000000000000
A6057          FAP GLAMOUR EYES VANILLA N°7  C100      F11   2D    **********11E4DC100 D    3700206760575000000000000000000000000
A6059          FAP GLAMOUR EYES LIN N°9      C100      F11   2D    **********11E4DC100 D    3700206760599000000000000000000000000
A6061          FAP STARLIGHT ONYX 15         C100      F11   2D    **********11E4DC100 D    3700206760612000000000000000000000000
A6062          FAP STARLIGHT BALLERINE 22    C100      F11   2D    **********11E4DC100 D    3700206760629003000000000000000000000
A6063          FAP STARLIGHT MOUSSELINE 23   C100      F11   2D    **********11E4DC100 D    3700206760636003000000000000000000000
A6064          FAP STARLIGHT TULLE 24        C100      F11   2D    **********11E4DC100 D    3700206760643003000000000000000000000
A6065          FAP STARLIGHT DENTELLE 25     C100      F11   2D    **********11E4DC100 D    3700206760650003000000000000000000000
A6066          FAP GLAMOUR EYE PLATINIUM N°16C100      F11   2D    **********11E4DC100 D    3700206760667000000000000000000000000
A6067          FAP GLAMOUR EYES PERLE N°25   C100      F11   2D    **********11E4DC100 D    3700206760674000000000000000000000000
A6068          FAP GLAMOUR EYES MARRON G N°26C100      F11   2D    **********11E4DC100 D    3700206760681000000000000000000000000
A6069          FAP GLAMOUR EYES JADE N°27    C100      F11   2D    **********11E4DC100 D    3700206760698000000000000000000000000
A6070          FAP GLAMOUR EYES PRUNE N°28   C100      F11   2D    **********11E4DC100 D    3700206760704000000000000000000000000
A6071          FAP STARLIGHT DIAMANT 01      C100      F11   2D    **********11E4DC100 D    3700206760711000000000000000000000000
A6072          FAP STARLIGHT QUARTZ 02       C100      F11   2D    **********11E4DC100 D    3700206760728000000000000000000000000
A6073          FAP STARLIGHT CORAIL 03       C100      F11   2D    **********11E4DC100 D    3700206760735000000000000000000000000
A6074          FAP STARLIGHT LOLITE 04       C100      F11   2D    **********11E4DC100 D    3700206760742000000000000000000000000
A6075          FAP STARLIGHT KUNZITE 05      C100      F11   2D    **********11E4DC100 D    3700206760759000000000000000000000000
A6076          FAP STARLIGHT AGATE 06        C100      F11   2D    **********11E4DC100 D    3700206760766000000000000000000000000
A6077          FAP STARLIGHT GOLD 07         C100      F11   2D    **********11E4DC100 D    3700206760773000000000000000000000000
A6078          FAP STARLIGHT TOPAZE 08       C100      F11   2D    **********11E4DC100 D    3700206760780000000000000000000000000
A6079          FAP STARLIGHT ANDALOUSITE 09  C100      F11   2D    **********11E4DC100 D    3700206760797000000000000000000000000
A6080          FAP STARLIGHT ALEXANDRITE 10  C100      F11   2D    **********11E4DC100 D    3700206760803000000000000000000000000
A6081          FAP STARLIGHT EMERAUDE 11     C100      F11   2D    **********11E4DC100 D    3700206760810000000000000000000000000
A6082          FAP STARLIGHT PERLE 12        C100      F11   2D    **********11E4DC100 D    3700206760827000000000000000000000000
A6083          FAP STARLIGHT SAPHIR 13       C100      F11   2D    **********11E4DC100 D    3700206760834000000000000000000000000
A6084          FAP STARLIGHT MORGANITE 14    C100      F11   2D    **********11E4DC100 D    3700206760841000000000000000000000000
A6085          FAP PALETTE VIP COLORS 6      C100      F11   2D    **********11E4DC100 D    3700206760858000000000000000000000000
A6086          FAP PALETTE VIP COLORS 5      C100      F11   2D    **********11E4DC100 D    3700206760865000000000000000000000000
A6087          FAP PALETTE VIP COLORS 4      C100      F11   2D    **********11E4DC100 D    3700206760872000000000000000000000000
A6088          FAP PALETTE VIP COLORS 3      C100      F11   2D    **********11E4DC100 D    3700206760889000000000000000000000000
A6089          FAP PALETTE VIP COLORS 2      C100      F11   2D    **********11E4DC100 D    3700206760896000000000000000000000000
A6090          FAP PALETTE VIP 1             C100      F11   2D    **********11E4DC100 D    3700206760902000000000000000000000000
A6091          FAP PALETTE GLAM EYES SPRING 1C100      F11   2D    **********11E4DC100 D    3700206760919000000000000000000000000
A6092          FAP PALETTE GLAM EYES PA N°5  C100      F11   2D    **********11E4DC100 D    3700206760926000000000000000000000000
A6093          FAP PALETTE GLAM EYES CIEL N°6C100      F11   2D    **********11E4DC100 D    3700206760933000000000000000000000000
A6094          FAP PALETTE GLAM EYES ROMA N°7C100      F11   2D    **********11E4DC100 D    3700206760940000000000000000000000000
A6096          EYESHADOW QUARTET N°8 SOUFF ORC100      F11   2D    **********11E4DC100 D    3700206760964000000000000000000000000
A6097          EYESHADOW QUARTET N°9 AMAZING C100      F11   2D    **********11E4DC100 D    3700206760971000000000000000000000000
A6100          KAJAL DRAMATIC BLACK          C100      F11   2D    **********11E4DC100 D    3700206761008000000000000000000000000
A6101          KAJAL MYSTERIOUS BROWN        C100      F11   2D    **********11E4DC100 D    3700206761015000000000000000000000000
A6102          KAJAL EMERALD GREEN           C100      F11   2D    **********11E4DC100 D    3700206761022000000000000000000000000
A6103          KAJAL PRECIOUS GREY           C100      F11   2D    **********11E4DC100 D    3700206761039000000000000000000000000
A6111          MASCARA FASHION CODE BLACK WP C100      F11   2D    **********11E4DC100 D    3700206761114000000000000000000000000
A6112          MASCARA FASHION CODE CHICBROWNC100      F11   2D    **********11E4DC100 D    3700206761121000000000000000000000000
A6113          MASCARA FASHION CODE BLACK NIGC100      F11   2D    **********11E4DC100 D    3700206761138003000000000000000000000
A6115          SMOKY GLITTER 01 GLITTER BLACKC100      F11   2D    **********11E4DC100 D    3700206761152003000000000000000000000
A6120          FAP STARLIGHT BLACK PARTY     C100      F11   2D    **********11E4DC100 D    3700206761206000000000000000000000000
A6121          FAP STARLIGHT MATT CHOCO      C100      F11   2D    **********11E4DC100 D    3700206761213000000000000000000000000
A6122          FAP STARLIGHT PURPLE GLAM     C100      F11   2D    **********11E4DC100 D    3700206761220000000000000000000000000
A6125          WONDER LINER 01 WONDER BLACK  C100      A11   2D    **********11E4DC100 D    3700206761251000000000000000000000000
A6126          WONDER LINER 02 WONDER GREY   C100      A11   2D    **********11E4DC100 D    3700206761268000000000000000000000000
A6127          WONDER LINER 03 WONDER BLUE   C100      A11   2D    **********11E4DC100 D    3700206761275000000000000000000000000
A6128          WONDER LINER 04 WONDER GOLD   C100      A11   2D    **********11E4DC100 D    3700206761282000000000000000000000000
A6129          WONDER LINER 05 WONDER BROWN  C100      A11   2D    **********11E4DC100 D    3700206761299000000000000000000000000
A6130          WONDER LINER 06 WONDER NUDE   C100      A11   2D    **********11E4DC100 D    3700206761305000000000000000000000000
A6131          HD LINER HIGHLY BLACK         C100      A11   2D    **********11E4DC100 D    3700206761312000000000000000000000000
A6132          HD LINER HIGHLY BROWN         C100      A11   2D    **********11E4DC100 D    3700206761329000000000000000000000000
A6140          BROW GEL                      C100      A11   2D    **********11E4DC100 D    3700206761404000000000000000000000000
A6141          BROW DESIGNER PEN 01 LIGHT BROC100      F11   2D    **********11E4DC100 D    3700206761411003000000000000000000000
A6142          BROW DESIGNER PEN 02 DARK BROWC100      F11   2D    **********11E4DC100 D    3700206761428003000000000000000000000
A6143          BROW DESIGNER PEN 03 DEEP GREYC100      F11   2D    **********11E4DC100 D    3700206761435003000000000000000000000
A6144          PALETTE BROW DESIGNER         C100      F11   2D    **********11E4DC100 D    3700206761442000000000000000000000000
A6146          SHINE UP GLOSS TRANSPARENT 9  C101      F11   2D    **********11E4DC101 D    3700206761466000000000000000000000000
A6147          SHINE UP GLOSS BOIS DE ROSE 10C101      F11   2D    **********11E4DC101 D    3700206761473000000000000000000000000
A6148          SHINE UP GLOSS ROSE N°11      C101      F11   2D    **********11E4DC101 D    3700206761480000000000000000000000000
A6149          SHINE UP GLOSS BEIGE ROSE N°12C101      F11   2D    **********11E4DC101 D    3700206761497000000000000000000000000
A6150          SHINE UP GLOSS OPALE N°13     C101      F11   2D    **********11E4DC101 D    3700206761503000000000000000000000000
A6151          TOP GLOSS ANTIC ROSE 1        C101      F11   2D    **********11E4DC101 D    3700206761510000000000000000000000000
A6152          TOP GLOSS LOVELY N°2          C101      F11   2D    **********11E4DC101 D    3700206761527000000000000000000000000
A6153          TOP GLOSS CORAIL N°3          C101      F11   2D    **********11E4DC101 D    3700206761534000000000000000000000000
A6154          TOP GLOSS FROZEN CHETNUT N°4  C101      F11   2D    **********11E4DC101 D    3700206761541000000000000000000000000
A6155          SHINE UP GLOSS CORAIL N°14    C101      F11   2D    **********11E4DC101 D    3700206761558000000000000000000000000
A6156          SHINE UP GLOSS ROUGE N°15     C101      F11   2D    **********11E4DC101 D    3700206761565000000000000000000000000
A6157          SHINE UP GLOSS FRAMBOISE N°16 C101      F11   2D    **********11E4DC101 D    3700206761572000000000000000000000000
A6158          SHINE UP GLOSS SO GOLD!18     C101      F11   2D    **********11E4DC101 D    3700206761589000000000000000000000000
A6160          MUST HAVE LINER BLACK OUT 01  C100      F11   2D    **********11E4DC100 D    3700206761602000000000000000000000000
A6161          MUST HAVE LINER HOT CHOCO 02  C100      F11   2D    **********11E4DC100 D    3700206761619000000000000000000000000
A6162          MUST HAVE LINER DIAMOND BLA 03C100      F11   2D    **********11E4DC100 D    3700206761626000000000000000000000000
A6171          RAL IRRESISTIBLE ROUGE 21     C101      F11   2D    **********11E4DC101 D    3700206761718000000000000000000000000
A6172          RAL CLASSIQUE BEIGE NATUR N°22C101      F11   2D    **********11E4DC101 D    3700206761725000000000000000000000000
A6173          RAL CLASSIQUE ROSE IRIS N°23  C101      F11   2D    **********11E4DC101 D    3700206761732000000000000000000000000
A6174          RAL CLASSIQUE PECHE N°24      C101      F11   2D    **********11E4DC101 D    3700206761749000000000000000000000000
A6175          RAL CLASSIQUE ROSE VIF N° 25  C101      F11   2D    **********11E4DC101 D    3700206761756000000000000000000000000
A6176          RAL CLASSIQUE ROSE PALE N°26  C101      F11   2D    **********11E4DC101 D    3700206761763000000000000000000000000
A6177          RAL CLASSIQUE FRAMBOISE N°27  C101      F11   2D    **********11E4DC101 D    3700206761770000000000000000000000000
A6178          RAL IRRESISTIBLE MORDORE 28   C101      F11   2D    **********11E4DC101 D    3700206761787000000000000000000000000
A6179          RAL CLASSIQ BOIS DE ROSE N°29 C101      F11   2D    **********11E4DC101 D    3700206761794000000000000000000000000
A6180          RAL CLASSIQUE CHOCOLAT N°30   C101      F11   2D    **********11E4DC101 D    3700206761800000000000000000000000000
A6185          MASCARA TAPIS ROUGE 01 BLACK  C100      A11   2D    **********11E4DC100 D    3700206761855000000000000000000000000
A6188          SUPER LENGTH BOOSTER MASCARA  C100      F11   2D    **********11E4DC100 D    3700206761886003000000000000000000000
A6191          RAL CLASSIQUE PRUNE N°31      C101      F11   2D    **********11E4DC101 D    3700206761916000000000000000000000000
A6192          RAL CLASSIQUE BORDEAUX N°32   C101      F11   2D    **********11E4DC101 D    3700206761923000000000000000000000000
A6193          RAL IRRESISTIBLE ROSE IRISE 33C101      F11   2D    **********11E4DC101 D    3700206761930000000000000000000000000
A6194          RAL IRRESISTIBLE FUCHSIA 34   C101      F11   2D    **********11E4DC101 D    3700206761947000000000000000000000000
A6195          RAL IRRESISTIBLE VIEUX ROSE 35C101      F11   2D    **********11E4DC101 D    3700206761954000000000000000000000000
A6196          RAL IRRESISTIBLE ROUGE CUIV 36C101      F11   2D    **********11E4DC101 D    3700206761961000000000000000000000000
A6197          RAL IRRESISTIBLE FRAMBOISE 37 C101      F11   2D    **********11E4DC101 D    3700206761978000000000000000000000000
A6198          RAL IRRESISTIBLE BORDEAUX 38  C101      F11   2D    **********11E4DC101 D    3700206761985000000000000000000000000
A6201          VAO LUXE LAQUE MYSTIC 1       C102      F11   2D    **********11E4DC102 D    3700206762012000000000000000000000000
A6202          VAO LUXE LAQUE PECHE D'OR 13  C102      F11   2D    **********11E4DC102 D    3700206762029000000000000000000000000
A6203          VAO LUXE LAQUE AURORE N°3     C102      F11   2D    **********11E4DC102 D    3700206762036000000000000000000000000
A6204          VAO LUXE LAQUE OPALE N°4      C102      F11   2D    **********11E4DC102 D    3700206762043000000000000000000000000
A6205          VAO LUXE LAQUE CHANTILLY N°5  C102      F11   2D    **********11E4DC102 D    3700206762050000000000000000000000000
A6206          VAO LUXE LAQUE JAZZY N°14     C102      F11   2D    **********11E4DC102 D    3700206762067000000000000000000000000
A6208          VAO DANCING QUEEN BALLERINE 08C102      A11   2D    **********11E4DC102 D    3700206762081000000000000000000000000
A6209          VAO DANCING QUEEN TANGO 09    C102      A11   2D    **********11E4DC102 D    3700206762098000000000000000000000000
A6210          VAO LUXE LAQUE GRENAT N°10    C102      F11   2D    **********11E4DC102 D    3700206762104000000000000000000000000
A6211          VAO LUXE LAQUE MYSTIC 11      C102      F11   2D    **********11E4DC102 D    3700206762111000000000000000000000000
A6212          VAO LUXE LAQUE BABYDOLL 15    C102      F11   2D    **********11E4DC102 D    3700206762128000000000000000000000000
A6213          VAO LUXE LAQUE BLACK 16       C102      F11   2D    **********11E4DC102 D    3700206762135000000000000000000000000
A6217          VAO LUXE LAQUE BEIGE 17       C102      F11   2D    **********11E4DC102 D    3700206762173000000000000000000000000
A6218          VAO LUXE LAQUE BEIGENATUREL 18C102      F11   2D    **********11E4DC102 D    3700206762180000000000000000000000000
A6219          VAO LUXE LAQUE ROSE NATUREL 19C102      F11   2D    **********11E4DC102 D    3700206762197000000000000000000000000
A6220          VAO DANCING QUEEN BLACK SWAN20C102      A11   2D    **********11E4DC102 D    3700206762203000000000000000000000000
A6221          VAO LUXE LAQUE CUIVRE 21      C102      F11   2D    **********11E4DC102 D    3700206762210000000000000000000000000
A6232          BASE COAT TOP COAT 32         C102      A11   2D    **********11E4DC102 D    3700206762326000000000000000000000000
A6233          VAO DANCQUEEN FRENCH CANCAN 33C102      A11   2D    **********11E4DC102 D    3700206762333000000000000000000000000
A6234          VAO DANCINGQUEEN CHARLESTON 34C102      A11   2D    **********11E4DC102 D    3700206762340000000000000000000000000
A6235          VAO DANCING QUEEN CHACHACHA 35C102      A11   2D    **********11E4DC102 D    3700206762357000000000000000000000000
A6246          VAO ED LIMITEE N°1 PRUNE DISCOC102      F11   2D    **********11E4DC102 D    3700206762463000000000000000000000000
A6247          VAO ED LIMITEE N°2 NEIGE ASTRAC102      F11   2D    **********11E4DC102 D    3700206762470000000000000000000000000
A6248          VAO ED LIMITEE 3              C102      F11   2D    **********11E4DC102 D    3700206762487000000000000000000000000
A6249          DISSOLVANT EXPRESS SECRETS TOPC100      A11   2D    **********11E4DC100 D    3700206762494003000000000000000000000
A6250          VAO LUXE LAQUE WHITE LAQUE 30 C102      A11   2D    **********11E4DC102 D    3700206762500000000000000000000000000
A6251          VAO LUXE LAQUE VERY PINK N°31 C102      A11   2D    **********11E4DC102 D    3700206762517000000000000000000000000
A6252          VAO LUXE LAQUE DIAMOND N°32   C102      A11   2D    **********11E4DC102 D    3700206762524000000000000000000000000
A6253          VAO LUXE LAQUE DARING PURPLE33C102      A11   2D    **********11E4DC102 D    3700206762531000000000000000000000000
A6254          VAO LUXE LAQUE FLASH VIOLET 34C102      A11   2D    **********11E4DC102 D    3700206762548000000000000000000000000
A6255          VAO LUXE LAQUE VIEUX ROSE N°35C102      A11   2D    **********11E4DC102 D    3700206762555000000000000000000000000
A6256          VAO LUXE LAQUE RASPBERRY N°36 C102      A11   2D    **********11E4DC102 D    3700206762562000000000000000000000000
A6257          VAO DANCING QUEEN OPERA 57    C102      A11   2D    **********11E4DC102 D    3700206762579000000000000000000000000
A6258          VAO LUXE LAQUE SUMMER CORAL 38C102      A11   2D    **********11E4DC102 D    3700206762586000000000000000000000000
A6259          VAO LUXE LAQUE BEIGE ROSE N°39C102      A11   2D    **********11E4DC102 D    3700206762593000000000000000000000000
A6260          FRENCH MANUCURE ELITE         C102      A11   2D    **********11E4DC102 D    3700206762609000000000000000000000000
A6261          VAO ROSE FRENCH 01 JULIA      C102      A11   2D    **********11E4DC100 D    3700206762616003000000000000000000000
A6262          VAO BEIGE PAILLETE 02 MING    C102      A11   2D    **********11E4DC100 D    3700206762623003000000000000000000000
A6263          VAO ROSE NACRE 03 GISELE      C102      A11   2D    **********11E4DC100 D    3700206762630003000000000000000000000
A6264          VAO BEIGE ROSE 04 CLAUDIA     C102      A11   2D    **********11E4DC100 D    3700206762647003000000000000000000000
A6265          VAO TAUPE 05 NAOMI            C102      A11   2D    **********11E4DC100 D    3700206762654003000000000000000000000
A6266          VAO BRUN 06 CINDY             C102      A11   2D    **********11E4DC100 D    3700206762661003000000000000000000000
A6267          VAO CORAIL 07 LEJLA           C102      A11   2D    **********11E4DC100 D    3700206762678003000000000000000000000
A6268          VAO FUSHIA 08 LINDA           C102      A11   2D    **********11E4DC100 D    3700206762685003000000000000000000000
A6269          VAO VIEUX ROSE 09 ALESSANDRA  C102      A11   2D    **********11E4DC100 D    3700206762692003000000000000000000000
A6270          VAO ROUGE 10 MARTA            C102      A11   2D    **********11E4DC100 D    3700206762708003000000000000000000000
A6271          VAO BORDEAUX 11 TYRA          C102      A11   2D    **********11E4DC100 D    3700206762715003000000000000000000000
A6272          VAO VIOLET 12 HEIDI           C102      A11   2D    **********11E4DC100 D    3700206762722003000000000000000000000
A6273          VAO 13 TOP COAT               C102      A11   2D    **********11E4DC100 D    3700206762739003000000000000000000000
A6301          FDT FLUID PERFECTION NUDE 01  C103      A11   2D    **********11E4DC103 D    3700206763019000000000000000000000000
A6302          FDT FLUID PERFECTION SAND 02  C103      A11   2D    **********11E4DC103 D    3700206763026000000000000000000000000
A6303          FDT FLUID PERFECTION HONEY 03 C103      A11   2D    **********11E4DC103 D    3700206763033000000000000000000000000
A6304          FDT FLUID PERFECTION HAZEL 04 C103      A11   2D    **********11E4DC103 D    3700206763040000000000000000000000000
A6305          LOOSE POWDER FRESH ROSE 01    C103      A11   2D    **********11E4DC103 D    3700206763057003000000000000000000000
A6306          LOOSE POWDER FRESH NATURAL 02 C103      A11   2D    **********11E4DC103 D    3700206763064003000000000000000000000
A6307          ENLIGHTENING COMPACT POWDER 5 C103      F11   2D    **********11E4DC103 D    3700206763071000000000000000000000000
A6308          ENLIGHTENING COMPACT POWDER 6 C103      F11   2D    **********11E4DC103 D    3700206763088000000000000000000000000
A6309          ENLIGHTENING COMPACT POWDER 7 C103      F11   2D    **********11E4DC103 D    3700206763095000000000000000000000000
A6310          ILLUMINATING FOUNDATION CARAMEC103      F11   2D    **********11E4DC103 D    3700206763101000000000000000000000000
A6311          ILLUMINATING FOUNDATION CACAO C103      F11   2D    **********11E4DC103 D    3700206763118000000000000000000000000
A6312          BB CREAM BEAUTIFUL LIGHT 01   C103      F11   2D    **********11E4DC103 D    3700206763125000000000000000000000000
A6313          BB CREAM BEAUTIFUL NUDE 02    C103      F11   2D    **********11E4DC103 D    3700206763132000000000000000000000000
A6314          BRONZING COMPACT POWDER 4     C103      F11   2D    **********11E4DC103 D    3700206763149000000000000000000000000
A6314B         SUN BRONZING COMPACT POWDR 4  C103      F11   2D    **********11E4DC103 D    3700206763149000000000000000000000000
A6315          BRONZING COMPACT POWDER 5     C103      F11   2D    **********11E4DC103 D    3700206763156000000000000000000000000
A6315B         SUN BRONZING COMPACT POWDR 5  C103      F11   2D    **********11E4DC103 D    3700206763156000000000000000000000000
A6316          BRONZING COMPACT POWDER 6     C103      F11   2D    **********11E4DC103 D    3700206763163000000000000000000000000
A6316B         SUN BRONZING COMPACT POWDER 6 C103      F11   2D    **********11E4DC103 D    3700206763163000000000000000000000000
A6317          BRONZING COMPACT POWDER 7     C103      F11   2D    **********11E4DC103 D    3700206763170000000000000000000000000
A6318          BRONZING COMPACT POWDER 8     C103      F11   2D    **********11E4DC103 D    3700206763187000000000000000000000000
A6319          BRONZING COMPACT POWDER 9     C103      F11   2D    **********11E4DC103 D    3700206763194000000000000000000000000
A6320          FRESH&NUDE LOOSE POWDER ROSE01C103      A11   2D    **********11E4DC103 D    3700206763200000000000000000000000000
A6321          FRESH&NUDE LOOSE POWDER NATU02C103      A11   2D    **********11E4DC103 D    3700206763217000000000000000000000000
A6322          BLUSH SECRET CHEEKS 2         C103      F11   2D    **********11E4DC103 D    3700206763224000000000000000000000000
A6323          BLUSH SECRET CHEEKS 3         C103      F11   2D    **********11E4DC103 D    3700206763231000000000000000000000000
A6325          BLUSH SECRET CHEEKS 5         C103      F11   2D    **********11E4DC103 D    3700206763255000000000000000000000000
A6327          BLUSH SECRET CHEEKS 11        C103      A11   2D    **********11E4DC103 D    3700206763279000000000000000000000000
A6331          MMB FLIRT WITH ME 01          C103      A11   2D    **********11E4DC103 D    3700206763316003000000000000000000000
A6332          MMB LOVE AT FIRST SIGHT 02    C103      A11   2D    **********11E4DC103 D    3700206763323000000000000000000000000
A6333          MMB FIRST RDV 03              C103      A11   2D    **********11E4DC103 D    3700206763330000000000000000000000000
A6334          MMB OULALA! 04                C103      A11   2D    **********11E4DC103 D    3700206763347000000000000000000000000
A6335          TWC M SPF15 IVOIRE 01         C103      F11   2D    **********11E4DC103 D    3700206763354000000000000000000000000
A6336          TWC M SPF15 NUDE 02           C103      F11   2D    **********11E4DC103 D    3700206763361000000000000000000000000
A6337          TWC M SPF15 MEDIUM 03         C103      F11   2D    **********11E4DC103 D    3700206763378000000000000000000000000
A6338          TWC M SPF15 MIEL 04           C103      F11   2D    **********11E4DC103 D    3700206763385000000000000000000000000
A6341          FLUID FDT SPF15 LIGHT 01      C103      F11   2D    **********11E4DC103 D    3700206763415000000000000000000000000
A6342          FLUID FDT SPF15 VANILLA 02    C103      F11   2D    **********11E4DC103 D    3700206763422000000000000000000000000
A6343          FLUID FDT SPF15 SAND 03       C103      F11   2D    **********11E4DC103 D    3700206763439003000000000000000000000
A6344          FLUID FDT SPF15 BEIGE 04      C103      F11   2D    **********11E4DC103 D    3700206763446003000000000000000000000
A6345          PROFESSIONAL CONCEALER 1      C103      F11   2D    **********11E4DC103 D    3700206763453000000000000000000000000
A6346          PROFESSIONAL CONCEALER 2      C103      F11   2D    **********11E4DC103 D    3700206763460000000000000000000000000
A6347          PROFESSIONAL CONCEALER 3      C103      F11   2D    **********11E4DC103 D    3700206763477000000000000000000000000
A6348          CLICK & GLOW CONCEALER 1      C103      F11   2D    **********11E4DC103 D    3700206763484000000000000000000000000
A6349          CLICK & GLOW CONCEALER 2      C103      F11   2D    **********11E4DC103 D    3700206763491000000000000000000000000
A6351          FLUID PERFECTION FOUNDATION 1 C103      F11   2D    **********11E4DC103 D    3700206763514000000000000000000000000
A6353          FLUID PERFECTION FDT 3        C103      F11   2D    **********11E4DC103 D    3700206763538000000000000000000000000
A6355          FLUID PERFECTION FOUNDATION 5 C103      F11   2D    **********11E4DC103 D    3700206763552000000000000000000000000
A6356          FLUID PERFECTION FOUNDATION 6 C103      F11   2D    **********11E4DC103 D    3700206763569000000000000000000000000
A6357          FDT FLUID PERFECTION OPALE 07 C103      A11   2D    **********11E4DC103 D    3700206763576003000000000000000000000
A6358          FLUID PERFECTION FDT PEACH 08 C103      A11   2D    **********11E4DC103 D    3700206763583003000000000000000000000
A6359          FLUID PERFECTION FDT NATURAL 9C103      A11   2D    **********11E4DC103 D    3700206763590003000000000000000000000
A6360          FLUID PERFECTION FDT 10 BEIGE C103      A11   2D    **********11E4DC103 D    3700206763606003000000000000000000000
A6361          ILLUMINATING FOUNDATION 1     C103      F11   2D    **********11E4DC103 D    3700206763613000000000000000000000000
A6362          ILLUMINATING FOUNDATION 2     C103      F11   2D    **********11E4DC103 D    3700206763620000000000000000000000000
A6363          ILLUMINATING FOUNDATION 3     C103      F11   2D    **********11E4DC103 D    3700206763637000000000000000000000000
A6364          ILLUMINATING FOUNDATION 4     C103      F11   2D    **********11E4DC103 D    3700206763644000000000000000000000000
A6365          ILLUMINATING FOUNDATION 5     C103      F11   2D    **********11E4DC103 D    3700206763651000000000000000000000000
A6366          ILLUMINATING FOUNDATION 6     C103      F11   2D    **********11E4DC103 D    3700206763668000000000000000000000000
A6367          LUMINIZER N°1                 C103      F11   2D    **********11E4DC103 D    3700206763675000000000000000000000000
A6368          TAN LUMINIZER N°1             C103      F11   2D    **********11E4DC103 D    3700206763682000000000000000000000000
A6369          TAN LUMINIZER N°2             C103      F11   2D    **********11E4DC103 D    3700206763699000000000000000000000000
A6370          ILLUMINATING FOUNDATION 7     C103      F11   2D    **********11E4DC103 D    3700206763705000000000000000000000000
A6371          FANTASTIC PRIMER BASE LISSANTEC103      F11   2D    **********11E4DC103 D    3700206763712000000000000000000000000
A6372          CLEAR COVER BASE ELITE 30ML   C103      F11   2D    **********11E4DC103 D    3700206763729000000000000000000000000
A6373          JUST PERFECT SILICONE B ELITE C103      F11   2D    **********11E4DC103 D    3700206763736000000000000000000000000
A6374          JUST PERFECT ELITE MINI 7ML   C103      F11   2D    **********11E4DC103 D    3700206763743000000000000000000000000
A6375          UV BASE ELITE 01              C103      F11   2D    **********11E4DC103 D    3700206763750000000000000000000000000
A6376          UV BASE ELITE 02              C103      F11   2D    **********11E4DC103 D    3700206763767000000000000000000000000
A6377          VELVET CPT FOUNDATION 7       C103      F11   2D    **********11E4DC103 D    3700206763774000000000000000000000000
A6377B         BLACK VELVET CPT FOUNDATION 7 C103      F11   2D    **********11E4DC103 D    3700206763774000000000000000000000000
A6378          VELVET CPCT FOUNDATION MOYEN 8C103      F11   2D    **********11E4DC103 D    3700206763781000000000000000000000000
A6378B         BLACK VELVET CPT FDT MOYEN 8  C103      F11   2D    **********11E4DC103 D    3700206763781000000000000000000000000
A6379          VELVET CPCT FOUNDATION INTENS9C103      F11   2D    **********11E4DC103 D    3700206763798000000000000000000000000
A6379B         BLACK VELVET CPT FDT MOYEN 9  C103      F11   2D    **********11E4DC103 D    3700206763798000000000000000000000000
A6380          VELVET CPT FOUNDATION 10      C103      F11   2D    **********11E4DC103 D    3700206763804000000000000000000000000
A6381          VELVET CPCT FOUNDATION MOYEN11C103      F11   2D    **********11E4DC103 D    3700206763811000000000000000000000000
A6382          VELVET CPCT FOUND INTENS 12   C103      F11   2D    **********11E4DC103 D    3700206763828000000000000000000000000
A6383          SACHET ECHANTILLON JUST PERFECC103      F11   2D    **********11E4DC103 D    0000000000000000000000000000000000000
A6385          TWC MOISTURIZING 01OPALE REFILC103      A11   2D    **********11E4DC103 D    3700206763859000000000000000000000000
A6386          TWC MOISTURIZ 02NATURAL REFILLC103      F11   2D    **********11E4DC103 D    3700206763866000000000000000000000000
A6387          TWC MOISTURIZ 03 PEACH REFILL C103      F11   2D    **********11E4DC103 D    3700206763873000000000000000000000000
A6388          TWC MOISTURIZ 04 BEIGE REFILL C103      F11   2D    **********11E4DC103 D    3700206763880000000000000000000000000
A6389          EMPTY CASE TWC                C103      F11   2D    **********11E4DC103 D    3700206763897000000000000000000000000
A6390          TWC MOISTURIZING 01 OPALE     C103      F11   2D    **********11E4DC103 D    3700206763903000000000000000000000000
A6391          TWC MOISTURIZING 02 NATURAL   C103      F11   2D    **********11E4DC103 D    3700206763910000000000000000000000000
A6392          TWC MOISTURIZING 03 PEACH     C103      F11   2D    **********11E4DC103 D    3700206763927000000000000000000000000
A6393          TWC MOISTURIZING 04 BEIGE     C103      F11   2D    **********11E4DC103 D    3700206763934000000000000000000000000
A6394          TWC MOISTURIZING 05 SAND      C103      F11   2D    **********11E4DC103 D    3700206763941000000000000000000000000
A6395          TWC MOISTURIZING 06 SUN       C103      F11   2D    **********11E4DC103 D    3700206763958000000000000000000000000
A6396          TWC WHITENING 01              C103      F11   2D    **********11E4DC103 D    3700206763965000000000000000000000000
A6397          TWC WHITENING 02              C103      F11   2D    **********11E4DC103 D    3700206763972000000000000000000000000
A6398          TWC WHITENING 03              C103      F11   2D    **********11E4DC103 D    3700206763989000000000000000000000000
A6399          TWC WHITENING 04              C103      F11   2D    **********11E4DC103 D    3700206763996000000000000000000000000
A6402          LIP PENCIL 2                  C101      A11   2D    **********11E4DC101 D    3700206764023000000000000000000000000
A6403          LIP PENCIL 3                  C101      A11   2D    **********11E4DC101 D    3700206764030000000000000000000000000
A6404          LIP PENCIL 4                  C101      A11   2D    **********11E4DC101 D    3700206764047000000000000000000000000
A6405          LIP PENCIL 5                  C101      A11   2D    **********11E4DC101 D    3700206764054000000000000000000000000
A6406          LIP PENCIL 6                  C101      A11   2D    **********11E4DC101 D    3700206764061000000000000000000000000
A6407          LIP PENCIL 7                  C101      A11   2D    **********11E4DC101 D    3700206764078000000000000000000000000
A6408          LIP PENCIL 8                  C101      A11   2D    **********11E4DC101 D    3700206764085000000000000000000000000
A6409          LIP PENCIL 9                  C101      A11   2D    **********11E4DC101 D    3700206764092000000000000000000000000
A6410          LIP PENCIL 1                  C101      A11   2D    **********11E4DC101 D    3700206764108000000000000000000000000
A6421          EYE PENCIL 1                  C100      F11   2D    **********11E4DC100 D    3700206764214000000000000000000000000
A6422          EYE PENCIL 2                  C100      F11   2D    **********11E4DC100 D    3700206764221000000000000000000000000
A6423          EYE PENCIL 3                  C100      F11   2D    **********11E4DC100 D    3700206764238000000000000000000000000
A6424          EYE PENCIL 4                  C100      A11   2D    **********11E4DC100 D    3700206764245000000000000000000000000
A6425          EYE PENCIL 5                  C100      A11   2D    **********11E4DC100 D    3700206764252000000000000000000000000
A6426          EYE PENCIL 6                  C100      A11   2D    **********11E4DC100 D    3700206764269000000000000000000000000
A6427          EYE PENCIL 7                  C100      F11   2D    **********11E4DC100 D    3700206764276000000000000000000000000
A6428          EYE PENCIL 8                  C100      F11   2D    **********11E4DC100 D    3700206764283000000000000000000000000
A6429          EYE PENCIL 9                  C100      A11   2D    **********11E4DC100 D    3700206764290000000000000000000000000
A6430          EYE PENCIL INTENSITY BLACK 01 C100      A11   2D    **********11E4DC100 D    3700206764306000000000000000000000000
A6431          EYE PENCIL INTENSITY GREY 02  C100      A11   2D    **********11E4DC100 D    3700206764313000000000000000000000000
A6432          EYE PENCIL INTENSITY SILVER 03C100      A11   2D    **********11E4DC100 D    3700206764320000000000000000000000000
A6433          EYE PENCIL INTENSITY CHESTN 04C100      A11   2D    **********11E4DC100 D    3700206764337000000000000000000000000
A6434          EYE PENCIL INTENSITY BLUE 05  C100      A11   2D    **********11E4DC100 D    3700206764344000000000000000000000000
A6435          EYE PENCIL INTENSITY GREEN 06 C100      A11   2D    **********11E4DC100 D    3700206764351000000000000000000000000
A6436          EYE PENCIL INTENSITY PURPLE07 C100      A11   2D    **********11E4DC100 D    3700206764368000000000000000000000000
A6437          EYE PENCIL INTENSITY PINK 08  C100      A11   2D    **********11E4DC100 D    3700206764375000000000000000000000000
A6438          EYE PENCIL INTENSITY WHITE 09 C100      A11   2D    **********11E4DC100 D    3700206764382000000000000000000000000
A6451          POUDRES LUMIERE DUO 01 AV MONTC100      F11   2D    **********11E4DC100 D    3700206764511000000000000000000000000
A6452          POUDRES LUMIERE DUO 02 CH ELYSC100      F11   2D    **********11E4DC100 D    3700206764528000000000000000000000000
A6453          POUDRES LUMIERE DUO 03 ST GERMC100      F11   2D    **********11E4DC100 D    3700206764535000000000000000000000000
A6454          POUDRES LUMIERE DUO 04 TROCADEC100      F11   2D    **********11E4DC100 D    3700206764542000000000000000000000000
A6455          POUDRES LUMIERE DUO 05 MOULIN C100      F11   2D    **********11E4DC100 D    3700206764559000000000000000000000000
A6456          POUDRES LUMIERE DUO 06 MONTMARC100      F11   2D    **********11E4DC100 D    3700206764566000000000000000000000000
A6457          POUDRES LUMIERE DUO 07 BELLEVIC100      F11   2D    **********11E4DC100 D    3700206764573000000000000000000000000
A6458          POUDRES LUMIERE DUO 08 PLACE VC100      F11   2D    **********11E4DC100 D    3700206764580000000000000000000000000
A6459          POUDRES LUMIERE DUO 09 PIGALLEC100      F11   2D    **********11E4DC100 D    3700206764597000000000000000000000000
A6460          POUDRES LUMIERE DUO 10 BORDS DC100      F11   2D    **********11E4DC100 D    3700206764603000000000000000000000000
A6461          POUDRES LUMIERE DUO 11 JARDIN C100      F11   2D    **********11E4DC100 D    3700206764610000000000000000000000000
A6462          POUDRES LUMIERE DUO 12 BUTTES C100      F11   2D    **********11E4DC100 D    3700206764627000000000000000000000000
A6470          POUDRES LUMIERE TRIO 20 VERSAIC100      F11   2D    **********11E4DC100 D    3700206764702003000000000000000000000
A6471          POUDRES LUMIERE TRIO 21 HAUSSMC100      F11   2D    **********11E4DC100 D    3700206764719003000000000000000000000
A6472          POUDRES LUMIERE TRIO 22 PONT AC100      F11   2D    **********11E4DC100 D    3700206764726003000000000000000000000
A6473          POUDRES LUMIERE TRIO 23 VOSGESC100      F11   2D    **********11E4DC100 D    3700206764733003000000000000000000000
A6474          POUDRES LUMIERE TRIO 24 CANAL C100      F11   2D    **********11E4DC100 D    3700206764740003000000000000000000000
A6501          GLOSSY LIPS N°1               C101      F11   2D    **********11E4DC101 D    3700206765013000000000000000000000000
A6502          GLOSSY LIPS N°2               C101      F11   2D    **********11E4DC101 D    3700206765020000000000000000000000000
A6511          SMARTI GLOSS FIZZ! 01         C101      F11   2D    **********11E4DC101 D    3700206765112000000000000000000000000
A6512          SMARTI GLOSS BARBE A PAPA 02  C101      F11   2D    **********11E4DC101 D    3700206765129000000000000000000000000
A6513          SMARTI GLOSS BANANA 03        C101      F11   2D    **********11E4DC101 D    3700206765136000000000000000000000000
A6514          SMARTI GLOSS STROUMPH 04      C101      F11   2D    **********11E4DC101 D    3700206765143000000000000000000000000
A6515          SMARTI GLOSS BUBBLE 05        C101      F11   2D    **********11E4DC101 D    3700206765150000000000000000000000000
A6516          SMARTI GLOSS POMME D'AMOUR 06 C101      F11   2D    **********11E4DC101 D    3700206765167000000000000000000000000
A6517          SMARTI GLOSS GUIMAUVE 07      C101      F11   2D    **********11E4DC101 D    3700206765174000000000000000000000000
A6518          SMARTI GLOSS MARSHMALLOW 08   C101      F11   2D    **********11E4DC101 D    3700206765181000000000000000000000000
A6525          REPULP ELITE Shopping Londres C101      F11   2D    **********11E4DC101 D    3700206765259000000000000000000000000
A6531          REPULP!GLOSS SPARKL BEIGE 01  C101      F11   2D    **********11E4DC101 D    3700206765310000000000000000000000000
A6532          REPULP! GLOSS GLAM NUDE 02    C101      F11   2D    **********11E4DC101 D    3700206765327000000000000000000000000
A6533          REPULP!GLOSS SENSUAL PRALINE03C101      F11   2D    **********11E4DC101 D    3700206765334000000000000000000000000
A6534          REPULP!GLOSS CHAR STRAWBERRY04C101      F11   2D    **********11E4DC101 D    3700206765341000000000000000000000000
A6535          REPULP!GLOSS AMA CLEMENTINE 05C101      F11   2D    **********11E4DC101 D    3700206765358000000000000000000000000
A6536          REPULP GLOSS DARLING PINK 06  C101      F11   2D    **********11E4DC101 D    3700206765365000000000000000000000000
A6537          REPULP!GLOSS GOLDEN PINK 07   C101      F11   2D    **********11E4DC101 D    3700206765372000000000000000000000000
A6538          REPULP!GLOSS SEXY FUCHSIA 08  C101      F11   2D    **********11E4DC101 D    3700206765389000000000000000000000000
A6539          REPULP!GLOSS PLUMPING VIOLET09C101      F11   2D    **********11E4DC101 D    3700206765396000000000000000000000000
A6540          REPULP!GLOSS SUBL RASPBERRY 10C101      F11   2D    **********11E4DC101 D    3700206765402000000000000000000000000
A6541          REPULP!GLOSS GORGEOUS RED 11  C101      F11   2D    **********11E4DC101 D    3700206765419000000000000000000000000
A6542          REPULP!GLOSS TEMPTING PLUM 12 C101      F11   2D    **********11E4DC101 D    3700206765426000000000000000000000000
A6543          REPULP!GLOSS CANDY GLOW 13    C101      F11   2D    **********11E4DC101 D    3700206765433000000000000000000000000
A6544          REPULP!GLOSS GIRLY PINK 14    C101      F11   2D    **********11E4DC101 D    3700206765440000000000000000000000000
A6545          REPULP!GLOSS WOODEN ROSE 15   C101      F11   2D    **********11E4DC101 D    3700206765457000000000000000000000000
A6546          REPULP!GLOSS ROMANTIC ROSE 16 C101      F11   2D    **********11E4DC101 D    3700206765464000000000000000000000000
A6547          REPULP!GLOSS SO NUDE          C101      F11   2D    **********11E4DC101 D    3700206765471000000000000000000000000
A6548          REPULP!GLOSS ROCK'N ROSES     C101      F11   2D    **********11E4DC101 D    3700206765488000000000000000000000000
A6550          FRENCH KISS COUP FOUDRE 01    C101      F11   2D    **********11E4DC101 D    3700206765501000000000000000000000000
A6551          FRENCH KISS DINNER IN MONTM 02C101      F11   2D    **********11E4DC101 D    3700206765518000000000000000000000000
A6552          FRENCH KISS ROMANTIC KISS 03  C101      F11   2D    **********11E4DC101 D    3700206765525000000000000000000000000
A6553          FRENCH KISS FRENCH ROMANCE 04 C101      F11   2D    **********11E4DC101 D    3700206765532000000000000000000000000
A6554          FRENCH KISS AMOUREUSE 05      C101      F11   2D    **********11E4DC101 D    3700206765549000000000000000000000000
A6555          FRENCH KISS LOVE IN PARIS 06  C101      F11   2D    **********11E4DC101 D    3700206765556000000000000000000000000
A6556          FRENCH KISS NUIT D AMOUR 07   C101      F11   2D    **********11E4DC101 D    3700206765563000000000000000000000000
A6557          FRENCH KISS PASSION 08        C101      F11   2D    **********11E4DC101 D    3700206765570000000000000000000000000
A6558          FRENCH KISS WEDDING RING 09   C101      F11   2D    **********11E4DC101 D    3700206765587000000000000000000000000
A6601          LOOSE POWDER N°1              C103      F11   2D    **********11E4DC103 D    3700206766010000000000000000000000000
A6602          LOOSE POWDER N°2              C103      F11   2D    **********11E4DC103 D    3700206766027000000000000000000000000
A6603          LOOSE POWDER N°2              C103      F11   2D    **********11E4DC103 D    3700206766034000000000000000000000000
A6604          POUDRE DES MERVEILLES ELITE   C103      F11   2D    **********11E4DC103 D    0000000000000000000000000000000000000
A6605          NUDE MAKEUP BOX               C103      F11   2D    **********11E4DC103 D    3700206766058012000000000000000000000
A6606          NUDE MAKEUP BOX X12           C103      F11   2D    **********11E4DC103 D    3700206766065000000000000000000000000
A6607          SMOKY EYES MAKEUP BOX         C100      F11   2D    **********11E4DC100 D    3700206766072012000000000000000000000
A6608          SMOKY EYES MAKEUP BOX X12     C100      F11   2D    **********11E4DC100 D    3700206766089000000000000000000000000
A6800          TABLIER PINCEAUX PLEIN        C100      F11   2D    **********11E4DC100 D    0000000000000000000000000000000000000
A6801          POCHON ORGANZA                C100      A11   2D    **********11E4DC100 D    0000000000000000000000000000000000000
A6802          DEBARDEUR NOIR ELITE TAILLE S U001      A59   BU    **********PLV  U001 U    0000000000000000000000000000000000000
A6803          TABLIER PLEIN PINCEAUX COLORESC100      F11   2D    **********11E4DC100 D    0000000000000000000000000000000000000
A6804          GIFT SET                      C100      A11   2D    **********11E4DC100 D    0000000000000000000000000000000000000
A6900          CNY KIT / DIAMOND EYES KIT    C100      F11   2D    **********11E4DC100 D    3700206769004000000000000000000000000
A6901          ELITE ORGANZA POUCH BLACK     C100      A11   2D    **********11E4DC100 D    0000000000000000000000000000000000000
A7099          DESTOCKAGE AUCHAN             A005      A12   2R    **********11E1PA005 R    0000000000000000000000000000000000000
A7214          FLEUR DE MASSAGE              3001      A24   23    **********2433D3001 3    3596710372140006000016200000270000006
A7215          GANT SISAL                    3001      A24   23    **********2433D3001 3    3596710372157006000010800000180000006
A7216          BROSSE DE BAIN BOIS           3001      A24   23    **********2433D3001 3    3596710372164006000005400000090000006
A7217          GANT EXFOLIANT                3001      A24   23    **********2433D3001 3    3596710372171006000010800000180000006
A7218          GANTS DE FRICTION             3001      A24   23    **********2433D3001 3    3596710372188006000014400000240000006
A7219          PINCE A EPILER MORS BIAIS     3001      F24   23    **********2433D3001 3    3596710372195006000079200001320000006
A7219V         PINCE A EPILER MORS BIAIS     3001      A24   23    **********2433D3001 3    3596710372195006000120000012000000001
A7220          PINCE A EPILER MORS DROIT     3001      F24   23    **********2433D3001 3    3596710372201006000079200001320000006
A7220V         PINCE A EPILER MORS DROIT     3001      A24   23    **********2433D3001 3    3596710372201006000120000012000000001
A7221          PINCE A EPILER MORS CRABE     3001      F24   23    **********2433D3001 3    3596710372218006000079200001320000006
A7221V         PINCE A EPILER MORS CRABE     3001      A24   23    **********2433D3001 3    3596710372218006000120000012000000001
A7222          PINCE A EPILER FANTAISIE      3001      F24   23    **********2433D3001 3    3596710372225006000064800001080000006
A7222V         PINCE A EPILER FANTAISIE      3001      A24   23    **********2433D3001 3    3596710372225006000100000010000000001
A7223          PINCE A EPILER ERGONOMIQUE    3001      F24   23    **********2433D3001 3    3596710372232006000039600000660000006
A7223V         PINCE A EPILER ERGONOMIQUE    3001      A24   23    **********2433D3001 3    3596710372232006000000000000000000000
A7224          EPONGES DEMAQUILLANTES X2     3001      F24   23    **********2433D3001 3    3596710372249006000019200000320000006
A7224V         EPONGES DEMAQUILLANTES X2     3001      A24   23    **********2433D3001 3    3596710372249006000125000012500000001
A7225          EPONGES LATEX CARREES X2      3001      F24   23    **********2433D3001 3    3596710372256006000084000001400000006
A7225V         EPONGES LATEX CARREES X2      3001      A24   23    **********2433D3001 3    3596710372256006000500000050000000001
A7226          EPONGES LATEX OVALES X4       3001      F24   23    **********2433D3001 3    3596710372263006000039600000660000006
A7226V         EPONGES LATEX OVALES X2       3001      A24   23    **********2433D3001 3    3596710372263006000500000050000000001
A7227          HOUPPETTE RONDE X2            3001      F24   23    **********2433D3001 3    3596710372270006000032400000540000006
A7227V         HOUPPETTE RONDE X2            3001      A24   23    **********2433D3001 3    3596710372270006000300000030000000001
A7228          RECOURBE CILS ANNEAUX CONFORT 3001      F24   23    **********2433D3001 3    3596710372287006000016800000280000006
A7228V         RECOURBE CILS ANNEAUX CONFORT 3001      A24   23    **********2433D3001 3    3596710372287006000100000010000000001
A7229          TAILLE CRAYON RECUPERATEUR    3001      F24   23    **********2433D3001 3    3596710372294006000036000000600000006
A7229V         TAILLE CRAYON RECUPERATEUR    3001      A24   23    **********2433D3001 3    3596710372294006000150000015000000001
A7230          SET MAQUILLAGE                3001      F24   23    **********2433D3001 3    3596710372300006000010800000180000006
A7230V         SET MAQUILLAGE                3001      A24   23    **********2433D3001 3    3596710372300084000016800000020000084
A7231          PINCEAU BLUSH RETRACTABLE GM  3001      F24   23    **********2433D3001 3    3596710372317006000018000000300000006
A7231V         PINCEAU BLUSH RETRACTABLE GM  3001      A24   23    **********2433D3001 3    3596710372317006000030000000060000050
A7232          PINCEAU BLUSH RETRACTABLE PM  3001      F24   23    **********2433D3001 3    3596710372324006000050400000840000006
A7232V         PINCEAU BLUSH RETRACTABLE PM  3001      A24   23    **********2433D3001 3    3596710372324006000000000000000000000
A7233          PINCEAU POUDRE                3001      F24   23    **********2433D3001 3    3596710372331006000026400000440000006
A7233V         PINCEAU POUDRE                3001      A24   23    **********2433D3001 3    3596710372331208000041600000020000208
A7234          PINCEAU BLUSH                 3001      F24   23    **********2433D3001 3    3596710372348006000033600000560000006
A7234V         PINCEAU BLUSH                 3001      A24   23    **********2433D3001 3    3596710372348006000000000000000000000
A7235          PINCEAU PAUPIERE              3001      F24   23    **********2433D3001 3    3596710372355006000060000001000000006
A7235V         PINCEAU PAUPIERE              3001      A24   23    **********2433D3001 3    3596710372355001000240000000020001200
A7236          BROSSE PEIGNE CILS SOURCILS   3001      F24   23    **********2433D3001 3    3596710372362006000086400001440000006
A7236V         BROSSE PEIGNE CILS SOURCILS   3001      A24   23    **********2433D3001 3    3596710372362006000129600012960000001
A7237          LOT DE 5 APPL COSMETIQUES     3001      F24   23    **********2433D3001 3    3596710372379006000036000000600000006
A7237V         LOT DE 5 APPL COSMETIQUES     3001      A24   23    **********2433D3001 3    3596710372379540000108000000020000540
A7238          APPLIC COSMETIQ 4 EMBOUTS     3001      F24   23    **********2433D3001 3    3596710372386006000045000000750000006
A7238V         APPLIC COSMETIQ 4 EMBOUTS     3001      A24   23    **********2433D3001 3    3596710372386006000000000000000000000
A7239          BROSSE À ONGLES GM            3001      F24   23    **********2433D3001 3    3596710372393006000018000000300000006
A7239V         BROSSE À ONGLES GM            3001      A24   23    **********2433D3001 3    3596710372393006000024000002400000001
A7240          BROSSE A ONGLES PM            3001      F24   23    **********2433D3001 3    3596710372409006000036000000600000006
A7240V         BROSSE A ONGLES PM            3001      A24   23    **********2433D3001 3    3596710372409006000100000010000000001
A7241          COUPE ONGLES PM               3001      F24   23    **********2433D3001 3    3596710372416006000050400000840000006
A7241V         COUPE ONGLES PM               3001      A24   23    **********2433D3001 3    3596710372416006000060000006000000001
A7242          COUPE ONGLES PM RECUPERATEUR  3001      F24   23    **********2433D3001 3    3596710372423006000037800000630000006
A7242V         COUPE ONGLES PM RECUPERATEUR  3001      A24   23    **********2433D3001 3    3596710372423006000048000004800000001
A7243          COUPE ONGLES GM               3001      F24   23    **********2433D3001 3    3596710372430006000023400000390000006
A7243V         COUPE ONGLES GM               3001      A24   23    **********2433D3001 3    3596710372430006000048000004800000001
A7244          COUPE ONGLES RECUP GM         3001      F24   23    **********2433D3001 3    3596710372447006000019200000320000006
A7244V         COUPE ONGLES RECUP GM         3001      A24   23    **********2433D3001 3    3596710372447006000048000004800000001
A7245          PINCE PEAUX CUTICULES         3001      F24   23    **********2433D3001 3    3596710372454006000022200000370000006
A7245V         PINCE PEAUX CUTICULES         3001      A24   23    **********2433D3001 3    3596710372454006000030000000060000050
A7246          COUPE CUTICULES               3001      F24   23    **********2433D3001 3    3596710372461006000060000001000000006
A7246V         COUPE CUTICULES               3001      A24   23    **********2433D3001 3    3596710372461006000120000001000000012
A7247          BATONNET CUTICULES X10        3001      F24   23    **********2433D3001 3    3596710372478006000066000001100000006
A7247V         BATONNET CUTICULES X10        3001      A24   23    **********2433D3001 3    3596710372478006000100000010000000001
A7248          LIME EMERI PM X20             3001      F24   23    **********2433D3001 3    3596710372485006000037800000630000006
A7248V         LIME EMERI PM X20             3001      A24   23    **********2433D3001 3    3596710372485006000048000004800000001
A7249          LIME EMERI PM X50             3001      F24   23    **********2433D3001 3    3596710372492006000019200000320000006
A7249V         LIME EMERI PM X50             3001      A24   23    **********2433D3001 3    3596710372492001000019200001920000001
A7250          LIME EMERI GM X50             3001      F24   23    **********2433D3001 3    3596710372508006000019200000320000006
A7250V         LIME EMERI GM X50             3001      A24   23    **********2433D3001 3    3596710372508006000032000003200000001
A7251          LIMES LARGES X8               3001      F24   23    **********2433D3001 3    3596710372515006000030000000500000006
A7251V         LIMES LARGES X8               3001      A24   23    **********2433D3001 3    3596710372515006000056000005600000001
A7252          LIMES SAPHIR METAL MM         3001      F24   23    **********2433D3001 3    3596710372522006000054000000900000006
A7252V         LIMES SAPHIR METAL MM         3001      A24   23    **********2433D3001 3    3596710372522006000100000010000000001
A7253          POLISSEUR ONGLES 4 USAGES     3001      F24   23    **********2433D3001 3    3596710372539006000066000001100000006
A7253V         POLISSEUR ONGLES 4 USAGES     3001      A24   23    **********2433D3001 3    3596710372539006000120000001000000012
A7254          LIMES PRO X2                  3001      F24   23    **********2433D3001 3    3596710372546006000044400000740000006
A7254V         LIMES PRO X2                  3001      A24   23    **********2433D3001 3    3596710372546006000120000012000000001
A7255          MAXI POLISSEUR                3001      F24   23    **********2433D3001 3    3596710372553006000030000000500000006
A7255V         MAXI POLISSEUR                3001      A24   23    **********2433D3001 3    3596710372553006000079200007920000001
A7256          SET MANUCURE                  3001      A24   23    **********2433D3001 3    3596710372560006000000000000000000000
A7257          RAPE METALLIQUE ERGONOMIQUE   3001      F24   23    **********2433D3001 3    3596710372577006000022800000380000006
A7257V         RAPE METALLIQUE ERGONOMIQUE   3001      A24   23    **********2433D3001 3    3596710372577006000048000000100000048
A7258          RAPE ANTICALLOSITES DOUBLE FAC3001      F24   23    **********2433D3001 3    3596710372584006000021000000350000006
A7258V         RAPE ANTICALLOSITES DOUBLE FAC3001      A24   23    **********2433D3001 3    3596710372584006000030000000100000030
A7259          PIERRE PONCE                  3001      F24   23    **********2433D3001 3    3596710372591006000019200000320000006
A7259V         PIERRE PONCE                  3001      A24   23    **********2433D3001 3    3596710372591006000024000000120000020
A7260          SEPARATEURS ORTEILS           3001      F24   23    **********2433D3001 3    3596710372607006000038400000640000006
A7260V         SEPARATEURS ORTEILS           3001      A24   23    **********2433D3001 3    3596710372607006000067200006720000001
A7261          CISEAUX COIFFEUR GRAND MODELE 3001      F24   23    **********2433D3001 3    3596710372614006000024000000400000006
A7261V         CISEAUX COIFFEUR GRAND MODELE 3001      A24   23    **********2433D3001 3    3596710372614006000030000000060000050
A7262          CISEAUX POUR DESEPAISSIR      3001      F24   23    **********2433D3001 3    3596710372621006000024000000400000006
A7262V         CISEAUX POUR DESEPAISSIR      3001      A24   23    **********2433D3001 3    3596710372621006000030000000060000050
A7263          CISEAUX ONGLES COURBES        3001      F24   23    **********2433D3001 3    3596710372638006000040800000680000006
A7263V         CISEAUX ONGLES COURBES        3001      A24   23    **********2433D3001 3    3596710372638006000060000000120000050
A7264          CISEAUX CUTICULES COURBES     3001      F24   23    **********2433D3001 3    3596710372645006000051600000860000006
A7264V         CISEAUX CUTICULES COURBES     3001      A24   23    **********2433D3001 3    3596710372645006000060000000120000050
A7265          CISEAUX CUTICULES DROITS      3001      F24   23    **********2433D3001 3    3596710372652006000051600000860000006
A7265V         CISEAUX CUTICULES DROITS      3001      A24   23    **********2433D3001 3    3596710372652006000060000000120000050
A7266          PINCE ONGLES SECATEUR         3001      F24   23    **********2433D3001 3    3596710372669006000007200000120000006
A7266V         PINCE ONGLES SECATEUR         3001      A24   23    **********2433D3001 3    3596710372669006000015000000030000050
A7267          PINCE ONGLES                  3001      F24   23    **********2433D3001 3    3596710372676006000014400000240000006
A7267V         PINCE ONGLES                  3001      A24   23    **********2433D3001 3    3596710372676006000025000000050000050
A7268          MIROIR À POSER PETIT MODELE   3001      A24   23    **********2433D3001 3    3596710372683006000004800000080000006
A7269          MIROIR À POSER MOYEN MODELE   3001      A24   23    **********2433D3001 3    3596710372690006000003600000060000006
A7270          MIROIR À POSER GRAND MODELE   3001      A24   23    **********2433D3001 3    3596710372706006000002400000040000006
A7271          MIROIR DE SAC                 3001      F24   23    **********2433D3001 3    3596710372713006000021600000360000006
A7271V         MIROIR DE SAC                 3001      A24   23    **********2433D3001 3    3596710372713006000030000000060000050
A7272          MIROIR GROSSISSANT X10        3001      F24   23    **********2433D3001 3    3596710372720006000030000000500000006
A7272V         MIROIR GROSSISSANT X10        3001      A24   23    **********2433D3001 3    3596710372720006000020000000040000050
A7273          CISEAUX MOUSTACHE             3001      F24   23    **********2433D3001 3    3596710372737006000044400000740000006
A7273V         CISEAUX MOUSTACHE             3001      A24   23    **********2433D3001 3    3596710372737006000060000000120000050
A7274          CISEAUX NEZ/OREILLES          3001      F24   23    **********2433D3001 3    3596710372744006000051600000860000006
A7274V         CISEAUX NEZ/OREILLES          3001      A24   23    **********2433D3001 3    3596710372744006000060000000120000050
A7275          EPILE NEZ / OREILLES          3001      F24   23    **********2433D3001 3    3596710372751006000025200000420000006
A7275V         EPILE NEZ / OREILLES          3001      A24   23    **********2433D3001 3    3596710372751006000000000000000000000
A7276          BROSSE A BARBE                3001      F24   23    **********2433D3001 3    3596710372768006000021000000350000006
A7276V         BROSSE A BARBE                3001      A24   23    **********2433D3001 3    3596710372768006000030000000500000006
A7277          24 FAUX ONGLES NATURELS       3001      A24   23    **********2433D3001 3    3596710372775006000000000000000000000
A7278          24 FAUX ONGLES FRENCH MANUCURE3001      A24   23    **********2433D3001 3    3596710372782006000000000000000000000
A7279          BIJOUX ONGLES STRASS          3001      A24   23    **********2433D3001 3    3596710372799006000000000000000000000
A7280          BIJOUX ONGLES FANTAISIE       3001      A24   23    **********2433D3001 3    3596710372805012000180000001500000012
A7281          BIJOUX ONGLES FLEURIS         3001      A24   23    **********2433D3001 3    3596710372812012000180000001500000012
A7282          LOT ELASTIQUES NOUES X6       3003      A24   23    **********2433D3003 3    3596710372829006000030000000500000006
A7283          BIGOUDI AUTOAGRIPPANT         3002      A24   23    **********2433D3002 3    3596710372836006000013800000230000006
A7284          BIGOUDI MOUSSE X7             3002      A24   23    **********2433D3002 3    3596710372843006000014400000240000006
A7285          LOT SERRE TETE                3002      A24   23    **********2433D3002 3    3596710372850006000025200000420000006
A7286          SERRE TETE BASIQUE            3002      A24   23    **********2433D3002 3    3596710372867006000030000000500000006
A7287          SERRE TETE FANTAISIE          3002      A24   23    **********2433D3002 3    3596710372874006000030000000500000006
A7288          SERRE TETE TISSU              3002      A24   23    **********2433D3002 3    3596710372881006000030000000500000006
A7289          SERRE TETE FLEXIBLE           3002      A24   23    **********2433D3002 3    3596710372898006000030000000500000006
A7290          SERRE TETE TISSU              3002      A24   23    **********2433D3002 3    3596710372904006000030000000500000006
A7291          SERRE TETE FLEXIBLE           3002      A24   23    **********2433D3002 3    3596710372911006000030000000500000006
A7292          SERRE TETE TISSU X2           3002      A24   23    **********2433D3002 3    3596710372928006000030000000500000006
A7293          LOT SERRE TETE                3002      A24   23    **********2433D3002 3    3596710372935006000030000000500000006
A7294          SERRE TETE FANTAISIE          3002      A24   23    **********2433D3002 3    3596710372942006000015000000300000006
A7295          BANDEAU BASIQUE               3002      A24   23    **********2433D3002 3    3596710372959006000027600000460000006
A7296          BANDEAU CROCHET               3002      A24   23    **********2433D3002 3    3596710372966006000030000000500000006
A7297          BANDEAU FIN                   3002      A24   23    **********2433D3002 3    3596710372973006000030000000500000006
A7298          BANDEAU IMPRIME               3002      A24   23    **********2433D3002 3    3596710372980006000042600000710000006
A7299          BANDEAU MODE                  3002      A24   23    **********2433D3002 3    3596710372997006000030000000500000006
A7300          BANDEAU MODE                  3002      A24   23    **********2433D3002 3    3596710373000006000025200000420000006
A7301          MINI PINCES                   3002      A24   23    **********2433D3002 3    3596710373017006000030000000500000006
A7302          MINI PINCES                   3002      A24   23    **********2433D3002 3    3596710373024006000030000000500000006
A7303          MICRO PINCES                  3002      A24   23    **********2433D3002 3    3596710373031006000030000000500000006
A7304          MINI PINCES                   3002      A24   23    **********2433D3002 3    3596710373048006000030000000500000006
A7305          MINI PINCES                   3002      A24   23    **********2433D3002 3    3596710373055006000030000000500000006
A7306          PINCES BASIQUES MM            3002      A24   23    **********2433D3002 3    3596710373062006000015600000260000006
A7307          PINCES BASIQUES PM            3002      A24   23    **********2433D3002 3    3596710373079006000000000000000000000
A7308          PINCE BASIQUE MM              3002      A24   23    **********2433D3002 3    3596710373086006000030000000500000006
A7309          PINCE PREMIUM GM              3002      A24   23    **********2433D3002 3    3596710373093006000000000000000000000
A7310          PINCE PREMIUM PM              3002      A24   23    **********2433D3002 3    3596710373109006000000000000000000000
A7311          PINCE PREMIUM MM              3002      A24   23    **********2433D3002 3    3596710373116006000025200000420000006
A7312          PINCE PREMIUM GM              3002      A24   23    **********2433D3002 3    3596710373123006000018000000300000006
A7313          PINCE PREMIUM MM              3002      A24   23    **********2433D3002 3    3596710373130006000021600000360000006
A7314          PINCE PREMIUM GM              3002      A24   23    **********2433D3002 3    3596710373147006000000000000000000000
A7315          PINCE PREMIUM PM              3002      A24   23    **********2433D3002 3    3596710373154006000000000000000000000
A7316          PINCE PREMIUM GM              3002      A24   23    **********2433D3002 3    3596710373161006000021600000360000006
A7317          PINCE PREMIUM PM              3002      A24   23    **********2433D3002 3    3596710373178006000028800000480000006
A7318          PINCE PREMIUM GM              3002      A24   23    **********2433D3002 3    3596710373185006000028800000480000006
A7319          PINCE PREMIUM PM              3002      A24   23    **********2433D3002 3    3596710373192006000021600000360000006
A7320          PINCE PREMIUM MM              3002      A24   23    **********2433D3002 3    3596710373208006000028800000480000006
A7321          BANDEAUX FAUX CHEVEUX TRESSES 3002      A24   23    **********2433D3002 3    3596710373215006000030000000500000006
A7322          BARRETTE METAL                3002      A24   23    **********2433D3002 3    3596710373222006000030000000500000006
A7323          MINI PINCES                   3002      A24   23    **********2433D3002 3    3596710373239006000030000000500000006
A7324          PINCE FOURCHE                 3002      A24   23    **********2433D3002 3    3596710373246006000000000000000000000
A7325          PINCE FANTAISIE PM            3002      A24   23    **********2433D3002 3    3596710373253006000024000000400000006
A7326          PINCE FANTAISIE GM            3002      A24   23    **********2433D3002 3    3596710373260006000026400000440000006
A7327          PINCE FANTAISIE PM            3002      A24   23    **********2433D3002 3    3596710373277006000026400000440000006
A7328          PINCE FANTAISIE GM            3002      A24   23    **********2433D3002 3    3596710373284006000000000000000000000
A7329          PINCE FANTAISIE PM            3002      A24   23    **********2433D3002 3    3596710373291006000000000000000000000
A7330          PINCE FANTAISIE GM            3002      A24   23    **********2433D3002 3    3596710373307006000028800000480000006
A7331          PINCE FANTAISIE PM            3002      A24   23    **********2433D3002 3    3596710373314006000021600000360000006
A7332          PINCE CHIGNON                 3002      A24   23    **********2433D3002 3    3596710373321006000021600000360000006
A7333          PINCE FANTAISIE GM            3002      A24   23    **********2433D3002 3    3596710373338006000000000000000000000
A7334          LOT PINCES BASIQUES CARREES X23002      A24   23    **********2433D3002 3    3596710373345006000025200000420000006
A7335          PINCE TGM                     3002      A24   23    **********2433D3002 3    3596710373352006000028800000480000006
A7336          PINCE MM                      3002      A24   23    **********2433D3002 3    3596710373369006000020400000340000006
A7337          LOT PINCES BASIQUES           3002      A24   23    **********2433D3002 3    3596710373376006000030000000500000006
A7338          LOT PINCES PM                 3002      A24   23    **********2433D3002 3    3596710373383006000024000000400000006
A7339          LOT PINCES PM                 3002      A24   23    **********2433D3002 3    3596710373390006000030000000500000006
A7340          LOT PINCES BASIQUES           3002      A24   23    **********2433D3002 3    3596710373406006000025200000420000006
A7341          PINCE ATTRAPE CHEVEUX         3002      A24   23    **********2433D3002 3    3596710373413006000026400000440000006
A7342          LOT PINCES BASIQUES           3002      A24   23    **********2433D3002 3    3596710373420006000027000000450000006
A7343          PINCE BASIQUE                 3002      A24   23    **********2433D3002 3    3596710373437006000021600000360000006
A7344          LOT PINCES BASIQUES           3002      A24   23    **********2433D3002 3    3596710373444006000025800000430000006
A7345          LOT PINCES BASIQUES           3002      A24   23    **********2433D3002 3    3596710373451006000024000000400000006
A7346          PINCE FANTAISIE               3002      A24   23    **********2433D3002 3    3596710373468006000029400000490000006
A7347          PINCE GM                      3002      A24   23    **********2433D3002 3    3596710373475006000000000000000000000
A7348          PICS CHIGNON                  3002      A24   23    **********2433D3002 3    3596710373482006000030000000500000006
A7349          PIC CHIGNON                   3002      A24   23    **********2433D3002 3    3596710373499006000000000000000000000
A7350          PINCES GUICHE MODE GM         3002      A24   23    **********2433D3002 3    3596710373505006000030000000500000006
A7351          PINCE BASIQUE                 3002      A24   23    **********2433D3002 3    3596710373512006000028800000480000006
A7352          PINCE TGM                     3002      A24   23    **********2433D3002 3    3596710373529006000024000000400000006
A7353          PINCE TGM                     3002      A24   23    **********2433D3002 3    3596710373536006000021600000360000006
A7354          PINCE TGM                     3002      A24   23    **********2433D3002 3    3596710373543006000018000000300000006
A7355          CLIC CLAC FANTAISIE OURS X4   3003      A24   23    **********2433D3003 3    3596710373550006000030000000500000006
A7356          BANDEAU                       3003      A24   23    **********2433D3003 3    3596710373567006000000000000000000000
A7357          LOT ELASTIQUES BIJOU X10      3003      A24   23    **********2433D3003 3    3596710373574006000030000000500000006
A7358          LOT ELASTIQUES AVEC BOULES X3 3003      A24   23    **********2433D3003 3    3596710373581006000030000000500000006
A7359          ELASTIQUE MOUSSE ASSORTIS     3003      A24   23    **********2433D3003 3    3596710373598006000030000000500000006
A7360          LOT DE CHOUCHOU X4            3003      A24   23    **********2433D3003 3    3596710373604006000038400000640000006
A7361          LOT ELASTIQUES NOEUD TULLE X6 3003      A24   23    **********2433D3003 3    3596710373611006000027000000450000006
A7362          ELASTIQUE SUPER ETIRABLE      3003      A24   23    **********2433D3003 3    3596710373628006000054000000900000006
A7363          ELASTIQUE CAOUTCHOUC          3003      A24   23    **********2433D3003 3    3596710373635006000054000000900000006
A7364          ELASTIQUE FINS PM             3003      A24   23    **********2433D3003 3    3596710373642006000030000000500000006
A7365          ELASTIQUES FLUOS X12          3003      A24   23    **********2433D3003 3    3596710373659006000015000000250000006
A7366          ELASTIQUE FIN MM              3003      A24   23    **********2433D3003 3    3596710373666006000028800000480000006
A7367          ELASTIQUES                    3003      A24   23    **********2433D3003 3    3596710373673006000029400000490000006
A7368          ELASTIQUES DECORES            3003      A24   23    **********2433D3003 3    3596710373680006000022800000380000006
A7369          LOT MIX ORNEMENTS ENFANT X11  3003      A24   23    **********2433D3003 3    3596710373697006000030000000500000006
A7370          BROSSE PNEUMATIQUE            3003      A24   23    **********2433D3003 3    3596710373703006000012000000200000006
A7371          BROSSE AERE                   3003      A24   23    **********2433D3003 3    3596710373710006000012000000200000006
A7372          LOT ELASTIQUES TELEPHONE GM X33003      A24   23    **********2433D3003 3    3596710373727006000030000000500000006
A7373          CLIC CLAC                     3003      A24   23    **********2433D3003 3    3596710373734006000030000000500000006
A7374          CLIC CLAC METAL CARREES X6    3003      A24   23    **********2433D3003 3    3596710373741006000030000000500000006
A7375          CLIC CLAC DECORES             3003      A24   23    **********2433D3003 3    3596710373758006000055800000930000006
A7376          CLIC CLAC MODE                3003      A24   23    **********2433D3003 3    3596710373765006000056400000940000006
A7377          CLIC CLAC GIRLY               3003      A24   23    **********2433D3003 3    3596710373772006000060000001000000006
A7378          CLIC CLAC FANTAISIE           3003      A24   23    **********2433D3003 3    3596710373789006000030000000500000006
A7379          MINI PINCES                   3003      A24   23    **********2433D3003 3    3596710373796006000030000000500000006
A7380          LOT ELASTIQUES BICOLORES X6   3003      A24   23    **********2433D3003 3    3596710373802006000048000000800000006
A7381          LOT ELASTIQUES TELEPHONE X8   3003      A24   23    **********2433D3003 3    3596710373819006000030000000500000006
A7382          LOT SERRE TETE                3003      A24   23    **********2433D3003 3    3596710373826006000030000000500000006
A7383          LOT ELASTIQUES FLEUR X10      3003      A24   23    **********2433D3003 3    3596710373833006000015000000250000006
